:100000000C94980B0C94F7240C94D0240C94C00BF3
:100010000C94C00B0C94C00B0C94C00B0C94C00B34
:100020000C94C00B0C94C00B0C94C00B0C94C00B24
:100030000C94C00B0C941E250C94C00B0C94C00B9C
:100040000C9486240C94C00B0C9454240C942E24F1
:100050000C94C00B0C94C00B0C94C00B0C94C00BF4
:100060000C94C00B0C94C00B084AD73B3BCE016EDE
:1000700084BCBFFDC12F3D6C74319ABD56833DDAFF
:100080003D00C77F11BED9E4BB4C3E916BAAAABE0E
:10009000000000803F004E414E494E495459494EA0
:1000A00046CDCCCC3D0AD7233C17B7D13877CC2BE3
:1000B000329595E6241FB14F0A000020410000C888
:1000C0004200401C4620BCBE4CCA1B0E5AAEC59D09
:1000D0007400101000FE0A06A7089500FFFE0EFE31
:1000E0000BFE1010201000FEAAAA000180000001E3
:1000F00080004A51EA505A51C99E00018000000117
:1001000080000001800055551010201000FEAAAAA2
:1001100000018000000180003993C252325F8A5290
:10012000719380000001800000018000555510107F
:10013000201000FEAAAA00018000000180003BA55B
:10014000C12431198924712580000001800000013B
:10015000800055551010201000FEAAAA0001800052
:10016000000180007BA5C1247919C1247925800074
:10017000000180000001800055551010201000FE85
:10018000AAAA000180000001800079BFC2487A4914
:10019000C248798980000001800000018000555527
:1001A0001010201000FEAAAA0001800000018000AB
:1001B0007A4DC2527B53C2D67A4F80000001800034
:1001C0000001800055551010201000FEAAAA000161
:1001D00080000001800031A5CA287A31CA2849A5CB
:1001E0008000000180000001800055551010201093
:1001F00000FEAAAA000180000001800073D1CA108D
:1002000073D1CA1073DF80000001800000018000FC
:1002100055551010201000FEAAAA00018000000110
:1002200080001E3991401E3191081E71800000012E
:1002300080000001800055551010201000FEAAAA71
:10024000000180000001800022F9A2203E21A220AE
:10025000222180000001800000018000555510100F
:10026000201000FEAAAA000180000001800020F9F1
:10027000A08020F9A0803E81800000018000000164
:10028000800055551010201000FEAAAA0001800021
:100290000001800022F9A220222194200821800060
:1002A000000180000001800055551010201000FE54
:1002B000AAAA00018000000180003EF9A0803EF95A
:1002C000A080208180000001800000018000555541
:1002D0001010201000FEAAAA00018000000180007A
:1002E0001EF1A08820F1A0901E89800000018000EE
:1002F0000001800055551010201000FEAAAA000130
:100300008000000180001E71A0881C8982883C71D9
:100310008000000180000001800055551010201061
:1003200000FEAAAA00018000000180001EF9A020A2
:100330001C2182203CF98000000180000001800027
:1003400055551010201000FEAAAA000180000001DF
:100350008000391DA510251DA51039DD8000000184
:1003600080000001800055551010201000FEAAAA40
:1003700000018000000180007189CA184A09CA087A
:10038000719D800000018000000180005555101013
:10039000201000FEAAAA00018000000180007199CF
:1003A000CA044A09CA10719D800000018000000142
:1003B000800055551010201000FEAAAA00018000F0
:1003C000000180007199CA044A19CA047199800019
:1003D000000180000001800055551010201000FE23
:1003E000AAAA00018000000180007185CA0C4A158C
:1003F000CA1C7185800000018000000180005555F5
:100400001010201000FEAAAA000180000001800048
:100410004993EA546A59DBD44A53800000018000B2
:100420000001800055551010201000FEAAAA0001FE
:100430008000000180003453C29A31178912711371
:100440008000000180000001800055551010201030
:1004500000FEAAAA00018000000180007BB9C1242F
:100460007939C124793980000001800000018000C1
:1004700055551010201000FEAAAA000180000001AE
:1004800080003325C4B447ADC4A434A58000000166
:1004900080000001800055551010201000FEAAAA0F
:1004A00000018000000180003E89A0D83EA9A088FC
:1004B0003E89800000018000000180005555101029
:1004C000201000FEAAAA00018000000180003A5D11
:1004D000C252325D8A52719D80000001800000018D
:1004E000800055551010201000FEAAAA00018000BF
:1004F0000001800079CFC2107991C0507B8F8000BD
:10050000000180000001800055551010201000FEF1
:10051000AAAA00018000000180001E7190801E6167
:10052000901010E18000000180000001800055550E
:100530001010201000FEAAAA000180000001800017
:100540000E719080166192100EE180000001800013
:100550000001800055551010201000FEAAAA0001CD
:100560008000000180001C7192801C61941012E1D7
:1005700080000001800000018000555510102010FF
:1005800000FEAAAA00018000000180001271928082
:10059000126192100CE180000001800000018000D7
:1005A000555500000008000E010A0A08040080806A
:1005B000808080808000808005040408020888888C
:1005C0008888060A0A080100242424FC4848FC9074
:1005D0009090070A0A080100107C9290701C1292F9
:1005E0007C10070A0A0801006294946810102C52CB
:1005F000528C070A0A0801003844442830528A8481
:100600008C7201040408040880808080030C0C08AC
:1006100003FF204040808080808080404020030C89
:100620000C0802FF804040202020202020404080F5
:100630000707070801011092543854921007070762
:10064000080101101010FE1010100204040803FE2F
:10065000C0404080040101080204F00202020803C5
:1006600000C0C0060A0A0801000404081010202077
:10067000408080060A0A080100304884848484840B
:10068000844830050A0A0802002060A020202020AB
:100690002020F8060A0A0801007884840418204003
:1006A0008080FC060A0A0801007884840438040467
:1006B000848478060A0A080100081828488888FCFB
:1006C000080808060A0A080100FC808080F8040473
:1006D000048478060A0A08010038408080F884847F
:1006E000848478060A0A080100FC0404080808103B
:1006F000101010060A0A0801007884848478848423
:10070000848478060A0A080100788484847C0404BE
:10071000040870020707080301C0C0000000C0C041
:100720000209090803FFC0C0000000C04040800566
:100730000909080200081020408040201008060522
:1007400005080102FC000000FC0509090801008001
:100750004020100810204080060A0A080100788412
:100760008404081010001010060A0A08010038441A
:1007700094ACA4A4A49C403C060A0A08010030489A
:10078000488484FC84848484060A0A080100F8846E
:100790008484F884848484F8060A0A080100788432
:1007A0008480808080848478060A0A080100F088AA
:1007B00084848484848488F0060A0A080100FC800A
:1007C0008080F880808080FC060A0A080100FC8096
:1007D0008080F88080808080060A0A080100788482
:1007E0008480809C84848C74060A0A0801008484B6
:1007F0008484FC8484848484050A0A080200F82026
:1008000020202020202020F8070A0A0801003E08A6
:100810000808080808888870060A0A080100848801
:1008200090A0C0C0A0908884060A0A0801008080B9
:1008300080808080808080FC060A0A080100848411
:10084000CCCCB4B484848484060A0A08010084C42D
:10085000C4A4A494948C8C84060A0A0801007884A9
:100860008484848484848478060A0A080100F884D5
:100870008484F88080808080070B0B0801FF7884D7
:100880008484848484B4CC7806060A0A080100F8BB
:10089000848484F89088888484060A0A0801007891
:1008A000848480601804848478070A0A080100FEA2
:1008B000101010101010101010060A0A0801008401
:1008C000848484848484848478070A0A08010082EA
:1008D000828244444428281010060A0A0801008431
:1008E000848484B4B4CCCC8484060A0A08010084CD
:1008F000844848303048488484070A0A0801008246
:10090000824444281010101010060A0A080100FC46
:100910000404081020408080FC030C0C0804FFE055
:1009200080808080808080808080E0060A0A0801C4
:100930000080804020201010080404030C0C0801E3
:10094000FFE020202020202020202020E00603039C
:100950000801093048840701010801FFFE03030371
:1009600008020A8040200608080801007884047CF8
:1009700084848C74060B0B080100808080B8C484CA
:10098000848484C4B80608080801007884808080C4
:10099000808478060B0B080100040404748C8484A2
:1009A00084848C74060808080100788484FC8080A4
:1009B0008478050B0B08010018202020F820202047
:1009C000202020060B0B0801FE04748888887040E4
:1009D00078848478060B0B080100808080B8C4847A
:1009E0008484848484050B0B08020020200060208E
:1009F0002020202020F8050D0D0801FE0808001811
:100A0000080808080808089060060B0B0801008019
:100A100080808890A0C0A0908884050B0B080200FD
:100A200060202020202020202020F807080808012E
:100A300000EC92929292929292060808080100B8F5
:100A4000C48484848484840608080801007884842B
:100A50008484848478060A0A0801FEB8C4848484E5
:100A600084C4B88080060A0A0801FE748C848484D9
:100A7000848C740404060808080100B8C4848080CB
:100A8000808080060808080100788480601804844B
:100A900078050A0A080100202020F82020202020C4
:100AA000180608080801008484848484848C7406F1
:100AB0000808080100848484484848303007080842
:100AC000080100829292929292926C0608080801A4
:100AD000008484483030488484060A0A0801FE8471
:100AE000848484844C34040478060808080100FCDB
:100AF000040810204080FC030C0C0803FF60808079
:100B0000404080804040808060010E0E0804FE80DE
:100B100080808080808080808080808080030C0C3A
:100B20000802FFC020204040202040402020C00775
:100B3000030308010862928C1010201000FEAAAA7C
:100B4000000180000001800073D1CA104BD1CA108F
:100B500073DF8000000180000001800055551010F7
:100B6000201000FEAAAA0001800000018000719DF3
:100B7000CA5273D3C252425D80000001800000015E
:100B8000800055551010201000FEAAAA0001800018
:100B900000018000499DCA527A5DCA504991800087
:100BA000000180000001800055551010201000FE4B
:100BB000AAAA00018000000180007393CA52739FAB
:100BC000CA12721380000001800000018000555598
:100BD0001010201000FEAAAA000180000001800071
:100BE0004B93EA525B9FCA524B93800000018000F6
:100BF0000001800055551010201000FEAAAA000127
:100C000080000001800074B9A6A425A5A4A474B92D
:100C10008000000180000001800055551010201058
:100C200000FEAAAA00018000000180004BD1EA105A
:100C30005BD1CA104BDF8000000180000001800002
:100C400055551010201000FEAAAA000180000001D6
:100C5000800039CDC212319F885273938000000109
:100C600080000001800055551010201000FEAAAA37
:100C7000000180000001800079CDC212799FC0522E
:100C80007B9380000001800000018000555510100A
:100C9000201000FEAAAA00018000000180004B9DE8
:100CA000C9207919C9044939800000018000000178
:100CB000800055551010201000FEAAAA00018000E7
:100CC0000001800025DDA4843C85A4842499800053
:100CD000000180000001800055551010201000FE1A
:100CE000AAAA000180000001800045CDC49044897B
:100CF000A8841099800000018000000180005555F3
:100D00001010201000FEAAAA00018000000180003F
:100D1000721DCA127213C21243DD800000018000EE
:100D20000001800055551010201000FEAAAA0001F5
:100D30008000000180007213CA127213C21243CDE8
:100D40008000000180000001800055551010201027
:100D500000FEAAAA00018000000180000E21892067
:100D60000E218A20092180000001800000018000FE
:100D700055551010201000FEAAAA000180000001A5
:100D8000800039DDC202318D8850739F80000001E0
:100D900080000001800055551010201000FEAAAA06
:100DA000000180000001800039DDC202318D8842DF
:100DB000739D8000000180000001800055551010D7
:100DC000201000FEAAAA000180000001800071CF5F
:100DD000CA104A0DCA0271DD8000000180000001C6
:100DE000800055551010201000FEAAAA00018000B6
:100DF000000180007245CA4C7245C244418F800098
:100E0000000180000001800055551010201000FEE8
:100E1000AAAA0001800000018000725DCA42724DE2
:100E2000C250419F800000018000000180005555A4
:100E30001010201000FEAAAA00018000000180000E
:100E40003B9DC12031198904713980000001800067
:100E50000001800055551010201000FEAAAA0001C4
:100E600080000001800039D3C212421FC21239D360
:100E700080000001800000018000555510102010F6
:100E800000FEAAAA00018000000180002289B68825
:100E90002AA9A2D8228980000001800000018000D8
:100EA00055551010201000FEAAAA00018000000174
:100EB00080003B8DC252339F8A1272138000000162
:100EC00080000001800055551010201000FEAAAAD5
:100ED00000018000000180007B8DC2527B9FC21206
:100EE0007A13800000018000000180005555101029
:100EF000201000FEAAAA0001800000018000398FA6
:100F0000C250324D8A42719D800000018000000174
:100F1000800055551010201000FEAAAA0001800084
:100F200000018000339BC42225A394A2639B800010
:100F3000000180000001800055551010201000FEB7
:100F4000AAAA000180000001800039DDC208320930
:100F50008A0871DD80000001800000018000555585
:100F60001010201000FEAAAA0001800000018000DD
:100F700039DDC2084189C0483B9D800000018000E6
:100F80000001800055551010201000FEAAAA000193
:100F90008000000180000EF990200C2182201C218D
:100FA00080000001800000018000555510102010C5
:100FB00000FEAAAA000180000001800031CFCA1003
:100FC0004991C850338F80000001800000018000EB
:100FD00055551010201000FEAAAA00018000000143
:100FE00080001C8992D81CA990881089800000017B
:100FF00080000001800055551010201000FEAAAAA4
:101000000001800000018000338FCA507B91CA101C
:101010004A0F80000001800000018000555500004B
:101020000008000E010A0A08040080800080808009
:1010300080808080070A0A08010010107C9290903E
:10104000927C1010070A0A0801001C202020F820BA
:1010500020207CC2060808080101844878484878A6
:101060004884070A0A08010082442810FE10FE1076
:101070001010010A0A08040080808080000080802F
:101080008080060A0A0801007884807884847804C5
:10109000847804020208020C9090080A0A080000F2
:1010A0003C4299A5A1A1A599423C05070708020564
:1010B000700878887800F806090908010024244897
:1010C000489048482424060404080100FC04040451
:1010D0001010201000FEAAAA000180003A63C2543A
:1010E00033C98A48724980000001800003C1800032
:1010F000000180005555080A0A0800003C42B9A5C5
:10110000A5B9A9A5423C06010108010BFC03040492
:1011100008020A40A0A040070909080101101010A8
:10112000FE10101000FE0507070802057088087001
:101130008080F80507070802057088087008887025
:1011400003030308030A204080080A0A0800FE423D
:10115000424242424266594080060C0C0801FF7C24
:10116000F4F4F4F47414141414141C0202020803AA
:1011700004C0C00302020802FE20C00307070802E1
:10118000052060A0202020200507070802057088A0
:1011900088887000F80609090801009090484824E2
:1011A00048489090060A0A08010044C44850502458
:1011B0002C549C84060A0A08010044C44850502854
:1011C0003444889C060A0A080100C4244830D0240C
:1011D0002C549C84060A0A080100101000101060AC
:1011E00084848478060E0E080100601800003048E0
:1011F000488484FC84848484060E0E0801001860F0
:1012000000003048488484FC84848484060E0E08E0
:101210000100304800003048488484FC8484848481
:10122000060E0E080100649800003048488484FCD3
:1012300084848484060E0E0801004848000030486B
:10124000488484FC84848484060E0E08010030489F
:1012500030003048488484FC84848484070A0A0867
:1012600001003E509090FE909090909E060C0C08CD
:1012700001FE788484808080808484781060060EEB
:101280000E08010060180000FC808080F8808080DB
:1012900080FC060E0E08010018600000FC808080B3
:1012A000F880808080FC060E0E08010030480000A7
:1012B000FC808080F880808080FC060E0E08010093
:1012C00048480000FC808080F880808080FC050E0B
:1012D0000E08020060180000F820202020202020A6
:1012E00020F8050E0E08020030C00000F820202073
:1012F0002020202020F8050E0E080200609000003B
:10130000F82020202020202020F8050E0E080200C2
:1013100090900000F82020202020202020F8070AAC
:101320000A08000078444242F24242424478060EE3
:101330000E0801006498000084C4C4A4A494948C92
:101340008C84060E0E0801006018000078848484E6
:10135000848484848478060E0E08010018600000DE
:1013600078848484848484848478060E0E08010042
:101370003048000078848484848484848478060ED1
:101380000E08010064980000788484848484848436
:101390008478060E0E080100484800007884848492
:1013A00084848484847806050508010284483048D2
:1013B00084060C0C0801FF0474888C9494A4A4C4C3
:1013C00044B880060E0E0801006018000084848472
:1013D00084848484848478060E0E080100186000DA
:1013E0000084848484848484848478060E0E0801B6
:1013F0000030480000848484848484848484780653
:101400000E0E08010048480000848484848484848B
:10141000848478070E0E0801001860000082824460
:1014200044281010101010060B0B0801008080F0EB
:1014300088848488F0808080060A0A080100708809
:101440008890B0888484A498060C0C080100601869
:1014500000007884047C84848C74060C0C080100E1
:10146000186000007884047C84848C74060C0C085A
:101470000100304800007884047C84848C74060C5D
:101480000C080100649800007884047C84848C74C7
:10149000060C0C080100484800007884047C848411
:1014A0008C74060D0D08010030483000007884046B
:1014B0007C84848C740708080801007C92127E905A
:1014C00090927C060A0A0801FE78848080808084DD
:1014D000781060060C0C0801006018000078848405
:1014E000FC80808478060C0C0801001860000078ED
:1014F0008484FC80808478060C0C0801003048004D
:1015000000788484FC80808478060C0C08010048F4
:10151000480000788484FC80808478050C0C0802E4
:1015200000C030000060202020202020F8050C0C96
:1015300008020030C0000060202020202020F80594
:101540000C0C080200609000006020202020202069
:10155000F8050C0C0802009090000060202020206C
:101560002020F8060C0C08010064182844047C8430
:101570008484848478060C0C08010064980000B808
:10158000C4848484848484060C0C080100601800E0
:10159000007884848484848478060C0C0801001804
:1015A0006000007884848484848478060C0C0801AC
:1015B00000304800007884848484848478060C0C8D
:1015C0000801006498000078848484848484780608
:1015D0000C0C0801004848000078848484848484CA
:1015E00078060707080101300000FC000030060AF9
:1015F0000A0801FF04788C9494A4A4C47880060C93
:101600000C080100601800008484848484848C7435
:10161000060C0C0801001860000084848484848413
:101620008C74060C0C08010030480000848484840B
:1016300084848C74060C0C080100484800008484E3
:10164000848484848C74060E0E0801FE18600000E9
:1016500084848484844C34040478050C0C0802FED1
:101660008080F088888890A0C0808080060E0E0858
:1016700001FE4848000084848484844C3404047847
:10168000FFE0FFD1AFFF32FFD0FFFEFFE0FFD1AEA2
:10169000FFD0FFFEFFE0FFD11000FFFEFFD0FFE014
:1016A000FFC1FFD1AED580A83FD300408D142000EC
:1016B000A1C8DA1281CFD9F1DB402EA4A6AFFFD0AA
:1016C000FFFE00000000250028002B0000000000A5
:1016D000240027002A000000000023002600290023
:1016E00004040404040404040202020202020303C8
:1016F00003030303010204081020408001020408D0
:10170000102001020408102000000008000201005F
:101710000003040700000000000000007C3C3E5E67
:101720002B3D3F2F5B5D3B2C2A225C0045255F2C27
:1017300011241FBECFEFD8E0DEBFCDBF27E0A4E568
:10174000B2E001C01D92A631B207E1F712E0A0E0BD
:10175000B1E0ECE3FDE602C005900D92A435B107BF
:10176000D9F71BE0C7E9DBE004C02197FE010E9426
:10177000DC31C639D107C9F70E9424260C94913672
:101780000C940000089580E008950895AF92BF92F0
:10179000CF92DF92EF92FF920F931F93CF93DF933D
:1017A0006C017B018B01040F151FEB015E01AE186C
:1017B000BF08C017D10759F06991D601ED91FC918E
:1017C0000190F081E02DC6010995892B79F7C501BB
:1017D000DF91CF911F910F91FF90EF90DF90CF900D
:1017E000BF90AF900895FC01538D448D252F30E0BC
:1017F000842F90E0821B930B541710F0CF9608951E
:1018000001970895FC01918D828D981761F0A28D4A
:10181000AE0FBF2FB11D5D968C91928D9F5F9F7310
:10182000928F90E008958FEF9FEF0895FC01918DC6
:10183000828D981731F0828DE80FF11D858D90E033
:1018400008958FEF9FEF0895FC01918D228D892FD0
:1018500090E0805C9F4F821B91098F7399270895B8
:1018600087EC95E00E94240C21E0892B09F420E00C
:10187000822F089580E090E0892B29F00E94300C9F
:1018800081110C9400000895FC01A48DA80FB92FBC
:10189000B11DA35ABF4F2C91848D90E001968F7398
:1018A0009927848FA689B7892C93A089B1898C91B7
:1018B000837080648C93938D848D981306C0028806
:1018C000F389E02D80818F7D80830895EF92FF92D0
:1018D0000F931F93CF93DF93EC0181E0888F9B8D53
:1018E0008C8D98131AC0E889F989808185FF15C00D
:1018F0009FB7F894EE89FF896083E889F989808130
:101900008370806480839FBF81E090E0DF91CF91FE
:101910001F910F91FF90EF900895F62E0B8D10E020
:101920000F5F1F4F0F731127E02E8C8D8E110CC08F
:101930000FB607FCFACFE889F989808185FFF5CFDA
:10194000CE010E94440CF1CFEB8DEC0FFD2FF11D69
:10195000E35AFF4FF0829FB7F8940B8FEA89FB8917
:1019600080818062CFCFCF93DF93EC01888D882375
:10197000B9F0AA89BB89E889F9898C9185FD03C0F2
:10198000808186FD0DC00FB607FCF7CF8C9185FFD7
:10199000F2CF808185FFEDCFCE010E94440CE9CFCC
:1019A000DF91CF910895833081F028F4813099F050
:1019B0008230A9F008958730A9F08830C9F08430CA
:1019C000B1F4809180008F7D03C0809180008F777B
:1019D00080938000089584B58F7784BD089584B581
:1019E0008F7DFBCF8091B0008F778093B0000895FA
:1019F0008091B0008F7DF9CF1F93CF93DF93282F75
:101A000030E0F901E85FF84E8491F901EC50F94EAD
:101A1000D491F901E052F94EC491CC23A9F0162FCC
:101A200081110E94D30CEC2FF0E0EE0FFF1FEE535C
:101A3000F94EA591B4918FB7F894EC91111108C0AB
:101A4000D095DE23DC938FBFDF91CF911F91089556
:101A5000DE2BF8CFCF93DF9390E0FC01EC50F94EF2
:101A600024918052994EFC0184918823D1F090E01A
:101A7000880F991FFC01E453F94EA591B491FC0124
:101A8000EE53F94EC591D49161110EC09FB7F894F1
:101A90008C91E22FE0958E238C932881E223E883BA
:101AA0009FBFDF91CF9108958FB7F894EC91E22B0F
:101AB000EC938FBFF6CF3FB7F8948091E9029091F5
:101AC000EA02A091EB02B091EC0226B5A89B05C0FA
:101AD0002F3F19F00196A11DB11D3FBFBA2FA92FAD
:101AE000982F8827BC01CD01620F711D811D911DAA
:101AF00042E0660F771F881F991F4A95D1F7089516
:101B00008F929F92AF92BF92CF92DF92EF92FF920D
:101B10004B015C010E945B0D6B017C010E945B0D1F
:101B20006C197D098E099F09683E734081059105F6
:101B3000A8F321E0821A9108A108B10888EEC80E26
:101B400083E0D81EE11CF11C81149104A104B104AE
:101B500029F7FF90EF90DF90CF90BF90AF909F90CC
:101B60008F9008952FB7F8946091E5027091E60286
:101B70008091E7029091E8022FBF089508958FB7F2
:101B8000F8948091DF028FBF089561E0FC018481A9
:101B90000E94FC0C8091DE0281111092DE020895F9
:101BA0008EBD00000DB407FEFDCF8EB508958FEFFA
:101BB0000C94D00D0F931F93CF93DF93EC010E94F1
:101BC000B20D8B010E94D70D8F3F69F00E94B20DBC
:101BD000601B710B6C177D07A8F380E0DF91CF913C
:101BE0001F910F91089581E0F9CF8CBD9DBD08959F
:101BF000CF93DF93EC018091DE02811109C081E077
:101C00008093DE0280916406909165060E94F50D36
:101C100060E08C81DF91CF910C94FC0C8F929F92AD
:101C2000AF92BF92FF920F931F93CF93DF93EC017C
:101C3000F62E49015A018E81882389F08F8198857B
:101C40009C012F5F3F4F38872F838230924018F4DA
:101C50000E94D70DF3CFCE010E94C50D1E82CE018A
:101C60000E94F80D8CE291E00E94DA0D8F2D8064C5
:101C70000E94D00D08E110E0D501C401002E04C07F
:101C8000B695A795979587950A94D2F70E94D00D9F
:101C900008501109083F8FEF180771F785E9FF20F9
:101CA00021F028E087E8F2128FEF0E94D00D10E0BB
:101CB0000E94D70D8A8787FF04C01F3F11F01F5F66
:101CC000F7CFDF91CF911F910F91FF90BF90AF9011
:101CD0009F908F900895AF92BF92CF92DF92EF9234
:101CE000FF920F931F93CF93DF93EC016901C8011B
:101CF000820F931F8130924050F58E81882379F0B6
:101D000088819981AA81BB8184179507A607B707A7
:101D100031F48F819885C816D90608F042C04883EF
:101D200059836A837B838B85833039F089E0440F44
:101D3000551F661F771F8A95D1F79A01AB0161E1A4
:101D4000CE010E940E0E882389F083E08D83CE01A0
:101D50000E94C50D80E0DF91CF911F910F91FF9000
:101D6000EF90DF90CF90BF90AF9008950E94B20D9A
:101D70005B010E94D70D8A878F3F69F40E94B20DE4
:101D80006A197B096D327140A0F38FE08D83CE011B
:101D90000E94C50DDCCF8E3F89F418861F8281E03A
:101DA0008E838F8198858C159D0550F40E94D70DE8
:101DB0008F819885019698878F83F3CF8DE0E6CF4A
:101DC0006701E00EF11E0E94D70DF60181936F01AD
:101DD000EE15FF05C1F78F819885080F191F188729
:101DE0000F838985882319F001151240A0F08E8198
:101DF000882389F08F8198859C012F5F3F4F38871A
:101E00002F838230924018F40E94D70DF3CFCE0179
:101E10000E94C50D1E8281E09ECFEF92FF920F932C
:101E20001F93CF93DF93EC01790182E141155105B6
:101E30006105710599F08B85833039F089E0440F95
:101E4000551F661F771F8A95D1F79A01AB0168E18C
:101E5000CE010E940E0E882319F084E08D8330C0DD
:101E60008EEF0E94D00D87018EEFF81AF801819154
:101E70008F010E94D00D0E151F05C1F78FEF0E9434
:101E8000D00D8FEF0E94D00D0E94D70D8A878F71E1
:101E9000853089F488E592E00E94DA0D8823A9F064
:101EA00020E030E0A9016DE0CE010E940E0E8823F3
:101EB00071F084E1D3CF81E18D83CE010E94C50D05
:101EC000CE010E94C50D80E00AC085E1C7CF0E9407
:101ED000D70D8111EECFCE010E94C50D81E0DF91BB
:101EE000CF911F910F91FF90EF900895CF93DF93C3
:101EF0008091C6038823A9F1C091C403D091C50382
:101F000040911201509113016091140170911501DB
:101F100027EC33E0CE010E940D0F811104C080E058
:101F2000DF91CF9108954091E0025091E1026091DC
:101F3000E2027091E302411551056105710579F0E6
:101F400027EC33E0CE010E940D0F882341F310925D
:101F5000E0021092E1021092E2021092E30210926B
:101F6000C60381E0DDCF8F929F92AF92BF92EF9236
:101F7000FF920F931F93CF934B015C01C42F80916D
:101F8000120190911301A0911401B09115018815CF
:101F90009905AA05BB0549F10E94760F81110BC076
:101FA00080E0CF911F910F91FF90EF90BF90AF9085
:101FB0009F908F90089587ECE82E83E0F82E00E044
:101FC00012E030E020E0B501A4018091C4039091BB
:101FD000C5030E946B0E882319F380921201909220
:101FE0001301A0921401B09215014091C6034C2B2D
:101FF0004093C60381E0D5CF8F929F92AF92BF925C
:10200000CF92DF92EF92FF92CF9326E636E03093A5
:10201000C5032093C403882309F46DC040E060E049
:1020200070E0CB010E94B30F81110BC080E0CF9113
:10203000FF90EF90DF90CF90BF90AF909F908F90E8
:102040000895809185058F7789F78091910590910A
:102050009205A0919305B091940584369105A10550
:10206000B10520F3C0908D05D0908E05E0908F05CE
:10207000F0909005C114D104E104F104B9F240E0FC
:10208000C701B6010E94B30F882381F28091D20369
:102090009091D3038115924049F6A091D703AA23CA
:1020A00029F26091D5037091D6036115710509F489
:1020B000BDCF2091D403222309F4B8CFA093840686
:1020C0002093760690E080E030E0E1E0F0E0C82F79
:1020D000AF01082E02C0440F551F0A94E2F72417DF
:1020E000350769F041E0480F01968930910579F78D
:1020F00040937F069BCFC12CD12C7601C0CF80931B
:102100007F062091DD033091DE0350E040E0211591
:10211000310541F42091EB033091EC034091ED0344
:102120005091EE032093770630937806409379061A
:1021300050937A0646015701860E971EA11CB11CCA
:102140008092850690928606A0928706B0928806B5
:10215000E091D803F091D903F0938B06E0938A06BF
:10216000B0E00E942B2FDC01CB01880D991DAA1D28
:10217000BB1D80938C0690938D06A0938E06B09322
:102180008F0625E0EE0FFF1F2A95E1F7E150FE4F85
:10219000EF2FFF27E6958E0F9F1FA11DB11D809386
:1021A000800690938106A0938206B0938306809068
:1021B000DA039090DB03B12CA12C8114910441F43B
:1021C0008090E7039090E803A090E903B090EA03C1
:1021D000C81AD90AEA0AFB0AC80CD91CEA1CFB1C5B
:1021E00004C0F694E794D794C794CA95D2F7C092E6
:1021F0007B06D0927C06E0927D06F0927E0685EF0B
:10220000C8168FE0D806E104F10428F48CE080932E
:10221000890681E00CCF80E125EFC2162FEFD206B0
:10222000E104F104A0F38091F3039091F403A091F1
:10223000F503B091F60380938C0690938D06A093DE
:102240008E06B0938F0680E2E2CF4F925F926F923C
:102250007F928F929F92AF92BF92CF92DF92EF9236
:10226000FF920F931F93CF93DF93EC014230510500
:102270006105710590F480E0DF91CF911F910F917E
:10228000FF90EF90DF90CF90BF90AF909F908F9096
:102290007F906F905F904F90089589859A85AB8568
:1022A000BC850196A11DB11D84179507A607B70728
:1022B00010F3CB88DC88ED88FE888F89803109F0A7
:1022C00042C0BB27A72F962F852F480159012A010D
:1022D0003B01C80ED91EEA1EFB1E8091120190918F
:1022E0001301A0911401B0911501C816D906EA0690
:1022F000FB0699F58F898031C1F5B301A2015527FD
:1023000066277727440F551F49535C4FFA01918286
:1023100080828091C60381608093C6038A8982305F
:1023200080F08D819E81AF81B8858C0D9D1DAE1D85
:10233000BF1D8093E0029093E102A093E202B0936C
:10234000E30281E099CFDB01CA01E7E0B695A795EA
:1023500097958795EA95D1F7B8CF40E0C701B601C8
:102360000E94B30F8111C6CF86CFB301A2014F7770
:10237000552766277727440F551F440F551F49538C
:102380005C4FFA0180829182A282B382C2CF8F9287
:102390009F92AF92BF92CF92DF92EF92FF920F93F4
:1023A0001F93CF93DF93FC0181859285A385B4852C
:1023B0000196A11DB11D84179507A607B70770F4F4
:1023C00080E0DF91CF911F910F91FF90EF90DF9010
:1023D000CF90BF90AF909F908F90089583889488FE
:1023E000A588B6888789803189F5BB27A72F962FC6
:1023F000852FE9016A017B018F01BC01CD01680DC8
:10240000791D8A1D9B1D8090120190901301A09050
:102410001401B090150186169706A806B90601F5B5
:10242000F8018789803111F5DD24EE24FF24F601BF
:10243000EE0FFF1FE953FC4F80819181B0E0A0E0D7
:1024400088839983AA83BB8381E0BBCFDB01CA0168
:10245000C7E0B695A79597958795CA95D1F7C9CF47
:1024600040E00E94B30F8111DBCFAACFE894C7F8F8
:10247000DD24EE24FF24F601EE0FFF1FEE0FFF1FF9
:10248000E953FC4F80819181A281B381BF70D8CF85
:102490004F925F926F927F92AF92BF92CF92DF92F4
:1024A000EF92FF920F931F93CF93DF9300D000D052
:1024B000CDB7DEB78C0149835A836B837C83590186
:1024C000C12CD12C7601412C82E0582E612C712C2C
:1024D00049815A816B817C819E012F5F3F4FC801EA
:1024E0000E94C711882339F1F8018585A301920163
:1024F00004C0220F331F441F551F8A95D2F7DA01FB
:10250000C901C80ED91EEA1EFB1E49815A816B8182
:102510007C818789803111F188EF9FEFAFEFBFE0B9
:10252000481759076A077B0798F2F501C082D182E4
:10253000E282F38281E00F900F900F900F90DF9175
:10254000CF911F910F91FF90EF90DF90CF90BF90B0
:10255000AF907F906F905F904F90089588EF9FEFBE
:10256000A0E0B0E0DDCFCF93DF93FC0125812223F3
:1025700021F080E0DF91CF910895EC0180918906F0
:10258000803159F582E08583178A108E118E128E64
:1025900080918A0690918B06B0E0A0E025E0880F3C
:1025A000991FAA1FBB1F2A95D1F7838B948BA58BEC
:1025B000B68B82E796E09C8F8B8F81E08C831E82A6
:1025C0001F82188619861A861B861C861D861E8603
:1025D0001F86188A198A1A8ACDCF803251F683E075
:1025E000858340918C0650918D0660918E06709186
:1025F0008F06478B508F618F728F9F012D5E3F4FEB
:1026000082E796E00E9448128111D3CFB2CF8F9219
:102610009F92AF92BF92CF92DF92EF92FF920F9371
:102620001F93CF93DF93EC018D8181110EC080E069
:10263000DF91CF911F910F91FF90EF90DF90CF909E
:10264000BF90AF909F908F9008950B891C892D8922
:102650003E89041715072607370748F34A015B012F
:10266000823031F48A869B86AC86BD8681E0E0CFDD
:1026700081149104A104B10449F41E821F821886BA
:1026800019861A861B861C861D86F0CF0A851B8537
:102690002C853D85EB8DFC8D858590E00996B901F3
:1026A000A8014150510961097109082E04C07695AD
:1026B0006795579547950A94D2F775016401E1E053
:1026C000CE1AD108E108F10804C0F694E794D79433
:1026D000C7948A95D2F7C416D506E606F70620F009
:1026E000012B022B032B11F58F89988DA98DBA8DA3
:1026F0008E839F83A887B9878E010A5F1F4FC114FD
:10270000D104E104F10409F4ADCF4E815F81688505
:10271000798598018B8D9C8D0E94C71191E0C91A13
:10272000D108E108F1088111EACF81CFC41AD50A96
:10273000E60AF70AE1CF3F924F925F926F927F9243
:102740008F929F92AF92BF92CF92DF92EF92FF92C1
:102750000F931F93CF93DF93CDB7DEB72C970FB6B0
:10276000F894DEBF0FBECDBF5C01DC015B968D909F
:102770009C905C9716964D905D906D907C9019970B
:10278000411451046104710409F468C0BFEF4B1A8D
:102790005B0A6B0A7B0A312CF40181859285A38543
:1027A000B4859C01AD012F5F3F4F4F4F5F4F29878D
:1027B0003A874B875C87730162011D821E821F82EC
:1027C0001886F40181859285A385B4852D813E818B
:1027D0004F815885281739074A075B0708F056C00C
:1027E00089859A85AB85BC858C159D05AE05BF0591
:1027F00050F482E0C82ED12CE12CF12C92E0492E2D
:10280000512C612C712C9E012F5F3F4FB701A60107
:10281000C4010E94C7118823C9F189819A81AB81C3
:10282000BC81892B8A2B8B2B09F1260137019FEF65
:10283000491A590A690A790A2D813E814F815885C2
:102840002F5F3F4F4F4F5F4F2D833E834F835887FE
:102850003FEFC31AD30AE30AF30AB3CFF40140806F
:102860005180628073803324339496CFC414D5048E
:10287000E604F70409F70FEF1FEF2FEF3FE0B70172
:10288000A601C4010E942511811119C080E02C9677
:102890000FB6F894DEBF0FBECDBFDF91CF911F9171
:1028A0000F91FF90EF90DF90CF90BF90AF909F90EF
:1028B0008F907F906F905F904F903F900895F501BB
:1028C0004681578160857185411551056105710506
:1028D00039F097018601C4010E9425118823B1F2C5
:1028E000D5011696CD92DD92ED92FC921997332088
:1028F00051F0D701C6010196A11DB11DF4018083DD
:102900009183A283B383F5018789908DA18DB28DC8
:10291000892B8A2B8B2B39F4C78AD08EE18EF28ECD
:1029200084818068848381E0B2CFCF93DF93EC0110
:102930008D81882389F18C8187FF2AC06E857F85F0
:102940008889998941E00E94B30F882329F1EA8997
:1029500080E2E89FF0011124E953FC4F3097E1F049
:102960008D81823040F48B899C89AD89BE89848FAA
:10297000958FA68FB78F8F89988D938F828F8F8930
:10298000988DA98DBA8DB58BA48B8C818F778C8314
:10299000DF91CF910C94760F80E0DF91CF91089575
:1029A000CF93DF93EC010E949514882311F01D82D0
:1029B00081E0DF91CF9108952F923F924F925F92E5
:1029C0006F927F928F929F92AF92BF92CF92DF923F
:1029D000EF92FF920F931F93CF93DF9300D000D01D
:1029E000CDB7DEB78C015B011A01DC0115968C9125
:1029F0001597813009F0C8C014968C9181FFC4C02E
:102A000082FDAEC06101D8011A964D915D916D9124
:102A10007C911D97C114D10409F429C15B968D9155
:102A20009C915C97FC0174802FEF270D2A013B01DC
:102A300039E076946794579447943A95D1F7722E7B
:102A400074207A01F1E0FF22711020C0E114F1043A
:102A5000E9F416964D915D916D917C911997411510
:102A600051056105710509F098C057968D919D91AA
:102A70000D90BC91A02D0097A105B10509F0AFC044
:102A8000C8010E949B13882309F47EC080E092E075
:102A90008E199F0946018C159D0508F44C01D8013B
:102AA0005B964D915C915C9716968D919D910D90E2
:102AB000BC91A02D0297A109B109FA01258504C096
:102AC000880F991FAA1FBB1F2A95D2F746855785E5
:102AD00060897189840F951FA61FB71F9C01AD01E6
:102AE000270D311D411D511D29013A01811432E08C
:102AF000930609F07AC08091120190911301A09180
:102B00001401B091150184159505A605B70559F472
:102B10008FEF9FEFDC018093120190931301A0933C
:102B20001401B09315019501B301A2018091C40372
:102B30009091C5030E940D0F882331F19EEFB91AC1
:102B4000C818D908F80182859385A485B585880DB4
:102B5000991DA11DB11D82879387A487B58753CF87
:102B6000F801438954896589768982859385A4858E
:102B7000B585481759076A077B0709F443CFC80191
:102B80000E94071381113ECF81E090E0D801139697
:102B90009C938E93129780E007C09E012F5F3F4F5A
:102BA0000E94C711811102C090E077C089819A818B
:102BB000AB81BC81F801238D348DF901278948EF61
:102BC0005FEF60E070E0203121F048EF5FEF6FEFE2
:102BD0007FE084179507A607B70708F051CFF801E3
:102BE00086839783A087B18751CFE114F10491F5D3
:102BF000D8011A964D915D916D917C911D975396D8
:102C00008D919D910D90BC91A02D481759076A0791
:102C10007B0700F10E94760F882309F4B5CF40921C
:102C2000120150921301609214017092150180916B
:102C3000C60381608093C603970129533C4FD50199
:102C4000C901880D991DF9018E179F0759F04D9103
:102C50004193FACF41E0C301B2010E94B30F811149
:102C6000EBCF92CF821B930BA80EB91E69CFF80150
:102C700083899489A589B68984179507A607B7071C
:102C800038F48481438B548B658B768B8068848386
:102C9000F801848183FD18C0C1010F900F900F903F
:102CA0000F90DF91CF911F910F91FF90EF90DF90E8
:102CB000CF90BF90AF909F908F907F906F905F90DC
:102CC0004F903F902F900895C8010E94951488233B
:102CD00009F45ACFE1CFCF93DF931F92CDB7DEB780
:102CE000698341E050E0BE016F5F7F4F0E94DC14BA
:102CF0000F90DF91CF910895FC01DB0112968D9129
:102D00009C9113979383828380E491E091838083E5
:102D100014968C911497848315968C9115978583BE
:102D200016964D915D916D917C91199746835783CD
:102D3000608771871A964D915D916D917C911D9779
:102D400042875387648775871E964D915D916D917B
:102D50007C91519746875787608B718B52968C91E7
:102D60005297828B53964D915D916D917C915697C0
:102D7000438B548B658B768B57964D915D916D91FE
:102D80007C915A97478B508F618F728F5B968D9194
:102D90009C91948F838F0895FC01818D928D009773
:102DA00011F00C9495140895DC015996ED91FC9165
:102DB0003097B9F083899489A589B689428553856E
:102DC00064857585841B950BA60BB70B811520E8D0
:102DD0009207A105B10538F08FEF9FE7A0E0B0E0C2
:102DE000089590E080E00895CF93DF93EC01E98DA2
:102DF000FA8D309749F481E090E09B838A8390E0DC
:102E000080E0DF91CF91089513821282898D9A8D8F
:102E10000E94DC14E98DFA8D22813381232B59F72E
:102E2000F0CFCF93DF931F92CDB7DEB76983DC017C
:102E3000ED91FC910280F381E02D41E050E0BE0174
:102E40006F5F7F4F09950F90DF91CF9108952F927B
:102E50003F924F925F926F927F928F929F92AF922A
:102E6000BF92CF92DF92EF92FF920F931F93CF9377
:102E7000DF9300D01F92CDB7DEB7FC0185818111B1
:102E800018C08FEF9FEF0F900F900F90DF91CF91B1
:102E90001F910F91FF90EF90DF90CF90BF90AF9078
:102EA0009F908F907F906F905F904F903F902F906A
:102EB0000895848180FFE5CF4389548965897689A7
:102EC00082859385A485B585312C212C4817590717
:102ED0006A077B0719F022242394312C6F0121010A
:102EE000CE0101963C01DF011696BB83AA834114F3
:102EF000510409F4C5C0F601428553856485758582
:102F00004A01F1E09F22D6015B968D919C915C97DE
:102F10008A019B01E9E03695279517950795EA9573
:102F2000D1F71596EC91E230E9F5FC01628D738DD5
:102F3000848D958D600F711F821F931FA12C22E03D
:102F4000B22EA818B9084A145B0408F45201F6011D
:102F5000248126FD04C0A114F2E0BF0671F40091A3
:102F600012011091130120911401309115010617DF
:102F700017072807390709F05EC040E00E94B30F29
:102F8000882309F47ECFC40189539C4FD3019C014F
:102F90002A0D3B1DFC012E173F0709F46CC041911F
:102FA0004D93F9CFDC011496BC90BA94B0228114F1
:102FB000910479F4B1100DC0452B462B472B69F5D0
:102FC000F6018789908DA18DB28D86839783A08726
:102FD000B187D6015B96ED91FC915C9716966D9149
:102FE0007D918D919C911997625071098109910988
:102FF000258504C0660F771F881F991F2A95D2F771
:103000000685178520893189600F711F821F931FE4
:103010006B0D711D811D911D91CFD60116964D919D
:103020005D916D917C9119972A813B810E94C71116
:103030008111CFCF26CF730185019401AB01BC0173
:103040008091C4039091C5030E946B0E882309F4FC
:1030500018CF6A0C7B1CF60182859385A485B58503
:103060008A0D9B1DA11DB11D82879387A487B587FB
:103070004A185B083CCF281B390B620E731EEBCF3E
:103080002A94232809F0FDCE898190E0FCCEFC0132
:10309000818D928D009711F00C9427178FEF9FEF81
:1030A00008950F931F930E94B20D6093FB067093D7
:1030B000FC068093FD069093FE0683EF96E00E9447
:1030C000471897FF1DC00E94B20D0091FB0610919A
:1030D000FC062091FD063091FE06601B710B820BF1
:1030E000930B0091F7061091F8062091F9063091A4
:1030F000FA066017710782079307F8F28FEF9FEFC8
:103100001F910F9108950F931F93CF93DF93EC01BD
:10311000898D9A8D10E000E0009799F00E942717A2
:103120008C010F3F100769F0898D9A8DFC01428553
:1031300053856485758541505109610971090E9463
:103140000713C801DF91CF911F910F910895DC0102
:103150001696ED91FC91179712968C91481B47702B
:1031600081E090E001C0880F4A95EAF7E60FF11D73
:103170003081222319F0832B808308958095832347
:10318000FBCFFB014181DC0112962C911297421773
:1031900068F013962C911397241740F060811596D0
:1031A0002C91621718F424810C94A7180895FC013F
:1031B00080819281980F92832181921760F494818B
:1031C0009F5F94839381890F821710F08FEF820F96
:1031D000838381E0089580E00895FC01128280815C
:1031E0008150838314820895DB01ED91FC91099451
:1031F0000F931F93CF93DF931F92CDB7DEB700914C
:10320000B5061091B606E091E406F091E50682E07D
:10321000099530E020E04AE0B80183EB96E00E9497
:10322000F418182FE091E406F091E50683E0099583
:10323000E091E406F091E50680E009951123B9F1EB
:103240006091B5067091B6069E012F5F3F4F46E430
:1032500083EB96E00E94F41889818093B306609115
:10326000B5067091B6069E012F5F3F4F47E483EB92
:1032700096E00E94F41889818093B4066091B506A7
:103280007091B60630E020E048E483EB96E00E94BF
:10329000F4188093BE066091B5067091B60626EECE
:1032A00036E047E183EB96E00E94F41811E0812FAD
:1032B0000F90DF91CF911F910F9108951F93CF939E
:1032C000DF93CDE21FEFD0E06091B5067091B606B6
:1032D000D093CF06C093D0061092D2061093D10699
:1032E0002FEC36E04BE383EB96E00E94F418D85FB6
:1032F000D03851F7CF5FC93631F7DF91CF911F91A9
:1033000008958091E9068D3248F08091E70689366C
:1033100028F48091E60687FF0C945E1908950B96B9
:10332000FC01849108950A96FC0184910895FC01A2
:10333000849108950E949719882321F0823011F01A
:1033400083E0089586E00895FC01E60FF11D849165
:1033500090E0982F88273196E4918E0F911D089563
:1033600068E00C94A41966E00C94A4195F926F9223
:103370007F928F929F92AF92BF92CF92DF92EF9205
:10338000FF920F931F93CF93DF93EC01E62EF42E61
:10339000C22E0C811D81C8010E949719D82E8C81E4
:1033A0009D810E949A19982E21E0AA24AA94D212F3
:1033B00002C02FE0A22E8C819D810E949319D82EED
:1033C0008C819D810E948F19B82E8C819D810E94D5
:1033D000B019E0E6EC1578F4009769F0080F191FB2
:1033E00091E6D92EBC14C0F4188A1B8A1C8A198A4B
:1033F0001A8A80E0A0C08C819D810E94B319F0E4FC
:10340000FC1538F4009729F0080F191F81E4D82E15
:10341000E9CF0F5E1F4FE6CFBD1430F3892D90E04A
:10342000F80124912F3F31F40F5F1F4FBD14E1F2DB
:10343000D394F6CFCD1072C08C819D810E949719D4
:1034400098012F5F3F4FF801882319F0823009F06F
:103450004EC084918B8BF90124912C8BF80133960B
:10346000E491E88BF8013496E491E98BF801359604
:10347000E491EA8B0115110509F4BBCF8C819D8184
:103480000E949A193C89F31A9A89F91A9FEF930FAF
:103490009F0D2CA94EA94F1508F449C0921718F496
:1034A0009F1508F047C02B899989E90E9FEF920F6D
:1034B0009E0D4BA95DA95E1508F44DC0941718F434
:1034C0009E1508F037C0080F111D295F722E7694E3
:1034D000769476946F2C630E5E01FCE1AF0EB11C06
:1034E000872C912CF61431F15E2C68014AC084912E
:1034F000982F9F7092509A8B82958F70898BF901CB
:103500002491822F8F708C8B22952F702B8BF8013A
:103510003296E491E295EF70E88BACCF3296E4916D
:10352000EA21E80FF92FF11D0E0F1F1F7FCF921711
:1035300008F0B6CF8889DF91CF911F910F91FF904E
:10354000EF90DF90CF90BF90AF909F908F907F9043
:103550006F905F900895941708F0B2CFEBCFF6010B
:1035600084916A817B815C8EFD8E1F8E8E8F95018A
:103570004BE3CE010E94F418FFEFCF1ADF0A28E0D8
:10358000520E8C2D801B871550F3080D191DF394D6
:10359000A9CFFF920F931F93CF93DF93D82FF62ECF
:1035A000C72FE091C806F091C90683EB96E0099514
:1035B000D80F0F2D1C2FC0E0F80121918F01211190
:1035C00007C08C2FDF91CF911F910F91FF9008952D
:1035D0004D2F6C2F83EB96E00E94B619C80FECCFED
:1035E0002EE93FE0009709F40895F9013197F1F7CA
:1035F0000197F8CFCF93DF9300D0CDB7DEB720EDA2
:1036000037E03A8329839091BC00982311F081E040
:103610000FC029813A81232B81F48091C30381FD5E
:10362000F6CF8091C20381110DC091E09093C20347
:103630000F900F90DF91CF91089529813A81215009
:103640003109DFCF80E0F4CF84EA8093BC0061E0F1
:1036500080E80E94FA1A811102C080E008958091EA
:10366000B900887F883051F0803141F08091C203E9
:103670008111F3CF82E08093C203EFCF88E780937C
:10368000BB0084E88093BC0062E080E80E94FA1AE4
:10369000882319F38091C30381FD05C08091B9008F
:1036A000887F883119F781E0089584E98093BC0010
:1036B00064E080E10C94FA1A8093BB0084E8809364
:1036C000BC0063E080E80E94FA1A8823A1F0809190
:1036D000C30381FD0DC08091B900887F883241F01D
:1036E0008091C203811106C092E09093C2030895B5
:1036F00081E0089580E008951092C20308958093B8
:10370000C3031092B90084FF05C08CE08093B80019
:103710000C947C1B88E4FACFCF93DF93FC0123A5A4
:10372000222389F0EC010E94241B811104C080E057
:10373000DF91CF9108958EA1811107C00E945C1B7B
:103740008823A9F31BA681E0F3CF80E4F7CF0F9382
:103750001F93CF93DF93C62FD42F8901633001F1DC
:1037600038F4613099F0623009F449C0C1E012C008
:10377000663029F1673091F16530C1F70E948C1BEA
:10378000811117C00E94551BC0E004C0FC0186A532
:103790000E947F1B8C2FDF91CF911F910F91089575
:1037A000FC0116A221E023A74111E0CF0E94551B86
:1037B000DDCF8D2F0E945C1B8111D8CFE3CF0E94FB
:1037C0008C1B8823F9F2DD2389F2F80181918F01A6
:1037D0000E945C1B8823B1F2D150F5CF0E948C1B54
:1037E000882381F2DD2311F2F80184910E945C1B91
:1037F000C82F882379F20F5F1F4FD150F3CFFC0100
:1038000046A321E023A7B2CFDB011496ED91FC91F2
:1038100030E020E065E00994DB011496ED91FC9125
:1038200030E020E062E00994DB011496ED91FC9118
:1038300030E020E063E00994CF92DF92EF92FF92B4
:103840000F931F93CF93DF938C017B016A0180E07C
:10385000F601C491811110C081E0CF3F49F04C2F97
:10386000B701C8010E94041C882309F444C080E009
:10387000BFEFCB1ADB0AECCF4FEFCF3F89F3CE3F40
:10388000D9F1C03FA0F7C03E38F04C2F4F70B701C0
:10389000C8010E940C1CEBCFC03D38F04C2F4F707C
:1038A000B701C8010E94141CE2CFC03CF8F0D70158
:1038B0001496ED91FC9130E020E040E064E0C80116
:1038C0000995C295C07FCE5FD0E0CE010E94F01A6C
:1038D000D7011496ED91FC9130E020E041E064E0E6
:1038E000C8010995CE010E94F01AC1CFC7FDBFCF14
:1038F0008C2F90E0F8CF80E0DF91CF911F910F9156
:10390000FF90EF90DF90CF900895AF92BF92CF924B
:10391000DF92FF920F931F93CF93DF936C018B0184
:10392000F42EE90180E1481709F47EC0841778F18C
:10393000AAE04A1709F461C0BFE04B1709F47FC041
:10394000F80102811381F2E3FF1609F4DDC0FF15CF
:1039500008F48EC085E1F81609F4DBC0A7E1FA1679
:1039600009F4ECC0B4E1FB1265C0D8011696ED91E4
:10397000FC91179715968C918E0F9F2F911D119288
:103980008E179F07E1F7C8010E94ED1853C0E1E1CF
:103990004E1709F451C0F5E14F13D2CFFB01A280BD
:1039A000B38044E956E1C6010E941C1CD50114965F
:1039B0004C91406BB801C6010E94041C41E0B80163
:1039C000C6010E940C1CF50126813781D80114968E
:1039D000ED91FC91D50115964C9166E0C6010995D3
:1039E00081111CC080E0DF91CF911F910F91FF905A
:1039F000DF90CF90BF90AF900895DB011496ED91CA
:103A0000FC9130E020E042E061E0C60109954CE91C
:103A100056E1B801C6010E941C1C92CF40E0B801DB
:103A2000C6010E94141C8CCF4BE856E1B801C601B8
:103A30000E941C1C81E0D7CF40E856E1F7CF41E05F
:103A4000C6010E94141C40E0B801C6010E940C1C73
:103A500041E8B801C6010E94041C4881B801C601B2
:103A60000E94041C40E0B801C6010E94141CE2CF71
:103A7000E6E4FE1609F46CC0F7E4FF1609F46DC025
:103A80008BE3F812D7CF99818B8138E0390F8130E1
:103A900031F0833011F0392F02C0392F985021E0D6
:103AA000D80113964C91491708F420E041E03917EA
:103AB00008F040E091E0F8015281351708F490E0F9
:103AC000322F342B932319F4242309F4B3CFFA8033
:103AD000D12CC12C843048F490E0FC01EA5DFE4F0B
:103AE000C0808E5D9E4FDC01DC90F7FE04C0BE01FD
:103AF000C8010E94C11888818C0D888389818D0D31
:103B00008983FF0C91F796CFBE01C8010E94C118AE
:103B100091CFC8010E94D718882309F463CFD80138
:103B20001696ED91FC91179715968C918E0F9F2FFD
:103B3000911D11928E179F07E1F77CCF1882F80133
:103B400082818983858181508A8383818B8372CF2F
:103B5000D80115968C9188836DCFF8018181FBCFB8
:103B60002F923F924F925F926F927F928F929F928D
:103B7000AF92BF92CF92DF92EF92FF920F931F937B
:103B8000CF93DF938091EC06811105C081E0809393
:103B9000EC060E94F818C091B506D091B606E091E7
:103BA000E406F091E50682E00995E091E406F091E3
:103BB000E50681E0099530E020E044E1BE0183EBB9
:103BC00096E00E94F41826EE36E047E1BE0183EB52
:103BD00096E00E94F418E091E406F091E50680E09A
:103BE00009952224239401ED10E033ECE32E3BE011
:103BF000F32E4FED442E40E0542E50EE652E50E053
:103C0000752E61EEC62E60E0D62E76EDA72E70E002
:103C1000B72EEDED8E2EE0E09E2E2092D306809101
:103C2000B7069091B806815D904069F11093B8068F
:103C30000093B7068091CA06811184C0F501849172
:103C40008093CB06F40184918093CC068091CB06BF
:103C5000082E000C990B2091CC06821B910927FDA0
:103C600093952091CD06203441F0829FC00111240C
:103C700026E0969587952A95E1F78093CE06F092F7
:103C8000C906E092C8066EE873E084E10E94C91A92
:103C90006AE773E088E20E94C91A0E9481191092B3
:103CA000D3066EEA73E08CE30E94C91AE091C10664
:103CB000F091C206309719F083EB96E00995C09118
:103CC000B506D091B606E091E406F091E50682E0F3
:103CD0000995E091E406F091E50681E0099530E070
:103CE00020E045E1BE0183EB96E00E94F418382EF7
:103CF000882341F026EE36E047E1BE0183EB96E0F3
:103D00000E94F418E091E406F091E50680E0099540
:103D1000311083CF6AE070E080E090E0DF91CF91D6
:103D20001F910F91FF90EF90DF90CF90BF90AF90D9
:103D30009F908F907F906F905F904F903F902F90CB
:103D40000C94800D813031F4F30184918093CB0683
:103D5000F60179CFEEEDF0E084918093CB06F2018D
:103D600072CF9C01990F440B550B60EF79E482E010
:103D700090E00E94BD31DA01C90163E0880F991F0C
:103D8000AA1FBB1F6A95D1F7009761E0A607B1058E
:103D900040F421E02093F4029093F3028093F20226
:103DA0000DC0009768E0A607B105B0F482E08093EB
:103DB000F4025F713093F3022093F2028091F202D9
:103DC0009091F30290938700809386008091F40293
:103DD0008061809381000895009720E4A207B105D7
:103DE00058F423E02093F40246E0B695A795979502
:103DF00087954A95D1F7D0CF0097A10561E0B60726
:103E000040F424E02093F402892F9A2FAB2FBB2794
:103E1000C3CF0097A10524E0B20758F425E0209312
:103E2000F4022AE0B695A795979587952A95D1F73C
:103E3000B3CF85E08093F4028FEF9FEFADCF60E0CA
:103E400088E00E94FC0C60E087E00E94FC0C60E0CF
:103E500084E00E94FC0C1092DD021092DC020895B6
:103E60004091D8025091D9026091DA027091DB0240
:103E70008091D4029091D502A091D602B091D70240
:103E800084179507A607B707A4F48091DC029091E8
:103E9000DD0260E0892B89F585E00E94FC0C61E081
:103EA00084E00E94FC0C81E090E09093DD0280931E
:103EB000DC024091D4025091D5026091D6027091FB
:103EC000D7028091D8029091D902A091DA02B091E4
:103ED000DB02481759076A077B0771F480910801D4
:103EE00090910901892B41F40E941F1F81E090E00D
:103EF0009093090180930801089585E00E94FC0CCD
:103F000060E084E00E94FC0C1092DD021092DC0262
:103F10008091D4029091D502A091D602B091D7029F
:103F20000196A11DB11D8093D4029093D502A09358
:103F3000D602B093D702BDCF8091ED028823C1F0A5
:103F40001092ED0281E090E09093090180930801C6
:103F50001092D4021092D5021092D6021092D7027B
:103F60001092D8021092D9021092DA021092DB025B
:103F70000895DF92EF92FF920F931F93CF93DF93F9
:103F8000EC01D62E1CAD0BAD7C0184E0E80EF11CDB
:103F9000E98DFA8DC7010995412F480F2D2D602F0E
:103FA000C7010E94B6199BAD890F8BAF81E090E0ED
:103FB000DF91CF911F910F91FF90EF90DF900895C7
:103FC00090E080E008950F931F93CF93DF93EC016F
:103FD00080E2689FF0011124E953FC4F6A8B8091C5
:103FE000120190911301A0911401B09115018E87D7
:103FF0009F87A88BB98B0489158930E020E0980150
:10400000112700270F8B188F298F3A8F828D938D60
:10401000B0E0A0E0AC01BD01402B512B622B732B13
:104020004F8B588F698F7A8F83858871A9F4848D1F
:10403000958DA68DB78D8B8B9C8BAD8BBE8B81E0C8
:104040008D8381E08C831E821F82188619861A86D2
:104050001B861C861D8603C0803131F080E0DF9115
:10406000CF911F910F9108959E012D5E3F4F8B8D33
:104070009C8D0E944812882389F384E0E1CFFC01E3
:1040800001900020E9F73197AF01481B590BBC01A3
:1040900087EC95E00C94C60B8F929F92AF92BF92E3
:1040A0000F931F93CF93DF93CDB7DEB7A1970FB6D2
:1040B000F894DEBF0FBECDBF19A2423008F44AE02B
:1040C0008E010F5D1F4F842E912CB12CA12CA501C8
:1040D00094010E949B31E62FB901CA01EA30F4F441
:1040E000E05DD801EE938D01232B242B252B79F74E
:1040F00090E080E0109719F0CD010E943F20A1963A
:104100000FB6F894DEBF0FBECDBFDF91CF911F91E8
:104110000F91BF90AF909F908F900895E95CE1CF91
:104120004F925F926F927F928F929F92AF92BF92C7
:10413000CF92DF92EF92FF920F931F93CF936B0179
:104140007C01742EAC019B010E948131882399F07F
:1041500086E691E0CF911F910F91FF90EF90DF9055
:10416000CF90BF90AF909F908F907F906F905F9017
:104170004F900C943F2046015701E894B7F82FEF79
:104180003FEF4FE75FE7C501B4010E948131811124
:104190000DC02FEF3FEF4FE75FE7C501B4010E946D
:1041A000042E18161CF48AE691E0D4CF2FEF3FEFCF
:1041B0004FE75FE4C701B6010E942A3118161CF4CC
:1041C0008EE691E0C7CF2FEF3FEF4FE75FECC701DF
:1041D000B6010E94042E87FDF3CF20E030E0A90154
:1041E000C701B6010E94042E10E000E087FF0AC05C
:1041F0006DE287EC95E00E94660C8C01F7FAF09472
:10420000F7F8F094C0E060E070E080E09FE37C1697
:1042100041F020E030E040E251E40E945B30CF5FAB
:10422000F6CFA70196010E947D2F2B013C010E9431
:10423000D4304B015C014AE00E944C207C01E00E2E
:10424000F11ECC23C1F1C501B4010E94092E9B01CE
:10425000AC01C301B2010E947C2F4B015C016EE2F4
:1042600087EC95E00E94660CE80EF91EC15018F12B
:1042700020E030E040E251E4C501B4010E946A2E22
:104280002B013C010E94D4304B01B12CA12C4AE0FF
:10429000C501B4010E944C20E80EF91EC501B4010D
:1042A0000E94092E9B01AC01C301B2010E947C2F28
:1042B0004B015C01DBCFC701CF911F910F91FF90A4
:1042C000EF90DF90CF90BF90AF909F908F907F90B6
:1042D0006F905F904F900895CF93DF93FC014481DE
:1042E00055816081718187EC95E00E94C60BEC01DD
:1042F00082E791E00E943F208C0F9D1FDF91CF91BC
:104300000895AF92BF92CF92DF92EF92FF920F93F8
:104310001F93CF93DF93CDB7DEB72B970FB6F894EB
:10432000DEBF0FBECDBF6C01FE013196CE010C96F3
:104330007F0120E22193E817F907E1F7DA0120E095
:1043400037E09D91B92E9923A9F19E32B9F43A3004
:1043500091F480E02B960FB6F894DEBF0FBECDBF70
:10436000DF91CF911F910F91FF90EF90DF90CF9051
:10437000BF90AF90089528E03AE0E3CFECE1F7E199
:104380008491882321F031969813FACFE2CF321727
:1043900000F38FED890F8E35E0F68FE9890F8A31B2
:1043A00018F440EEB42EB90EF701E20FF11DB08201
:1043B0002F5FC7CF8981803261F28B01FB01838D32
:1043C000948DF601948F838FFB01168217821086DD
:1043D00011861286138614861586F80182859385C8
:1043E000A485B5854389548965897689841795079D
:1043F000A607B70708F0ADCF25E0B695A795979526
:1044000087952A95D1F7F82FFF70AF2EF801858197
:10441000823008F49ECFC8010E94271797FD99CFDC
:10442000F80182859385A485B5854F96A11DB11DA0
:1044300082879387A487B587F0E2AF9EB0011124ED
:1044400069537C4F6115710509F483CFFB018081AD
:10445000882309F1853E19F4B11032C01EC04BE02B
:1044600050E0C7010E94C433892B09F0B6CF6A2DF2
:10447000C6012B960FB6F894DEBF0FBECDBFDF91FD
:10448000CF911F910F91FF90EF90DF90CF90BF9051
:10449000AF900C94E31FB1105CCFF601A28A80911B
:1044A000120190911301A0911401B091150186871A
:1044B0009787A08BB18BFB018081882309F449CFBA
:1044C000BB24B3948ACFCF92DF92EF92FF926B011D
:1044D0007C01F7FE2DC061E088E00E94FC0C60E0EA
:1044E00087E00E94FC0CF7FE08C0F094E094D094A2
:1044F000C094C11CD11CE11CF11CC092D802D09206
:10450000D902E092DA02F092DB02109209011092D5
:1045100008018091080190910901892B79F465E7E0
:1045200071E08EEA93E00E94DA330E94B01DF1CF71
:1045300060E088E00E94FC0C61E0D2CF1092D402CF
:104540001092D5021092D6021092D7021092D80281
:104550001092D9021092DA021092DB02FF90EF90D3
:10456000DF90CF900895CF92DF92EF92FF926B0190
:104570007C011C141D041E041F046CF561E088E01E
:104580000E94FC0C61E087E00E94FC0CF7FE08C072
:10459000F094E094D094C094C11CD11CE11CF11C97
:1045A000C092D802D092D902E092DA02F092DB02F5
:1045B000109209011092080180910801909109015F
:1045C000892B79F465E771E08EEA93E00E94DA3393
:1045D0000E94B01DF1CF60E088E00E94FC0C60E01A
:1045E000D2CF1092D4021092D5021092D60210921D
:1045F000D7021092D8021092D9021092DA021092C9
:10460000DB02FF90EF90DF90CF900895CF93DF9380
:10461000EC0188819981009711F00E947E32198205
:1046200018821D821C821B821A82DF91CF9108950D
:10463000FC01808191810C947E320F931F93CF9364
:10464000DF93EC0188819981009759F02A813B81A1
:104650002617370730F081E0DF91CF911F910F913E
:1046600008958B016F5F7F4F0E940733009759F0C9
:10467000998388831B830A832C813D81232B59F7DF
:10468000FC011082E8CF80E0E7CFEF92FF920F931A
:104690001F93CF93DF936115710541F480E0DF91A3
:1046A000CF911F910F91FF90EF9008954115510503
:1046B000B1F07B01EC010C811D81040F151FB801C5
:1046C0000E941D23882351F3288139818C819D818B
:1046D000B701820F931F0E94DA331D830C8381E0A0
:1046E000DECFCF93DF93EC01FB01448155816081E4
:1046F00071810E944523811103C0CE010E940623CF
:10470000CE01DF91CF910895EF92FF920F931F9307
:10471000CF93DF93EC01198218821B821A821D82CB
:104720001C828617970719F1FB0100811181011581
:104730001105E9F0E480F580B7010E941D23811185
:1047400009C0CE01DF91CF911F910F91FF90EF90A3
:104750000C940623FD82EC82B80188819981DF9157
:10476000CF911F910F91FF90EF900C94DA33DF916E
:10477000CF911F910F91FF90EF900895EF92FF92CC
:104780000F931F93CF93DF93EC01198218821B8242
:104790001A821D821C826115710521F18B01FB01BA
:1047A00001900020E9F731977F01E61AF70AB70177
:1047B0000E941D23811109C0CE01DF91CF911F916D
:1047C0000F91FF90EF900C940623FD82EC82B801CC
:1047D00088819981DF91CF911F910F91FF90EF9088
:1047E0000C94DA33DF91CF911F910F91FF90EF90EE
:1047F0000895EF92FF920F931F93CF93DF93EC01F5
:104800007B018A011B821A8288EE93E0A0E0B0E06F
:104810008C839D83AE83BF8388E591E099838883F1
:104820008DE190E00E94E2319A8F898F009779F0B4
:104830002DE1F701DC0101900D922A95E1F74CE0A2
:1048400050E0B801CE010C960E94E133188EDF9142
:10485000CF911F910F91FF90EF9008951F920F92AB
:104860000FB60F9211242F933F934F935F936F9343
:104870007F938F939F93AF93BF93EF93FF9387ECB7
:1048800095E00E94440CFF91EF91BF91AF919F91F1
:104890008F917F916F915F914F913F912F910F90E9
:1048A0000FBE0F901F9018951F920F920FB60F9288
:1048B00011242F938F939F93EF93FF93E091D7054C
:1048C000F091D8058081E091DD05F091DE0582FD53
:1048D0001BC090818091E0058F5F8F732091E1056F
:1048E000821741F0E091E005F0E0E953FA4F958F2F
:1048F0008093E005FF91EF919F918F912F910F9001
:104900000FBE0F901F9018958081F4CF1F920F92C9
:104910000FB60F9211242F933F938F939F93AF93D2
:10492000BF938091E5029091E602A091E702B091D9
:10493000E8023091E40223E0230F2D3758F5019669
:10494000A11DB11D2093E4028093E5029093E6023D
:10495000A093E702B093E8028091E9029091EA0205
:10496000A091EB02B091EC020196A11DB11D8093C4
:10497000E9029093EA02A093EB02B093EC02BF919C
:10498000AF919F918F913F912F910F900FBE0F90FC
:104990001F90189526E8230F0296A11DB11DD2CFB6
:1049A0001F920F920FB60F9211242F933F934F93A4
:1049B0005F936F937F938F939F93AF93BF93EF9387
:1049C000FF93E0910C01F0910D010995FF91EF919A
:1049D000BF91AF919F918F917F916F915F914F9117
:1049E0003F912F910F900FBE0F901F9018951F921F
:1049F0000F920FB60F9211242F933F934F935F9313
:104A00006F937F938F939F93AF93BF93EF93FF9396
:104A1000E0910A01F0910B010995FF91EF91BF918F
:104A2000AF919F918F917F916F915F914F913F9146
:104A30002F910F900FBE0F901F9018951F920F92FD
:104A40000FB60F9211242F933F934F935F936F9361
:104A50007F938F939F93AF93BF93EF93FF93E091D7
:104A6000F002F091F1020995FF91EF91BF91AF91A2
:104A70009F918F917F916F915F914F913F912F9176
:104A80000F900FBE0F901F9018951092CA051092AC
:104A9000C90588EE93E0A0E0B0E08093CB05909349
:104AA000CC05A093CD05B093CE052EE231E0309336
:104AB000C8052093C70525EC30E03093D40520933A
:104AC000D30524EC30E03093D6052093D50520ECB7
:104AD00030E03093D8052093D70521EC30E03093B7
:104AE000DA052093D90522EC30E03093DC052093E1
:104AF000DB0526EC30E03093DE052093DD051092D7
:104B0000E0051092E1051092E2051092E30520E520
:104B1000209364061092650610926B0610926C0644
:104B200010926F061092710642E050E060E070E073
:104B300040937206509373066093740670937506E3
:104B400010928906109293061092920620E431E0AA
:104B50003093910620939006109295061092F606D7
:104B60001092F5068093F7069093F806A093F90645
:104B7000B093FA0688E591E09093F4068093F306EB
:104B800010920D0710920C071092FF0664E771E077
:104B90008DEE96E00E94BE231092B2061092B106EE
:104BA0008CE491E09093B0068093AF061092EA06F1
:104BB0001092EB061092EC061092B8061092B7060F
:104BC0001092BA061092B9061092BC0681E080934A
:104BD000BB0682E28093BD061092C2061092C10607
:104BE000E6EDF6E084EE96E02FEF21938E179F0717
:104BF000E1F781E08093D30623EC3BE03093C906D4
:104C00002093C8068093CA061092CB061092CC0659
:104C100080E48093CD061092CE0682EC9BE09093C8
:104C2000E5068093E40686E191E09093B6068093D2
:104C3000B5061092E1060E94F8188CE491E090937A
:104C4000B0068093AF060895CF93DF93CDB7DEB75C
:104C5000C257D1090FB6F894DEBF0FBECDBF78940E
:104C600084B5826084BD84B5816084BD85B5826071
:104C700085BD85B5816085BD80916E008160809322
:104C80006E0010928100809181008260809381008B
:104C9000809181008160809381008091800081609B
:104CA000809380008091B10084608093B1008091F6
:104CB000B00081608093B00080917A00846080931E
:104CC0007A0080917A00826080937A0080917A00E5
:104CD000816080937A0080917A00806880937A0066
:104CE0001092C10000E1009381001092800011E059
:104CF0001093F40288EB9BE09093F3028093F2020E
:104D0000909387008093860081E18093810080E307
:104D10009FE19093F1028093F00210936F0080E97D
:104D200091E00E94B11E0E941F1FE091D705F091F3
:104D3000D80582E08083E091D305F091D4051082FC
:104D4000E091D505F091D60500831092DF05E09142
:104D5000DB05F091DC0586E08083E091D905F091D8
:104D6000DA05808180618083E091D905F091DA05D0
:104D7000808188608083E091D905F091DA05808197
:104D800080688083E091D905F091DA0580818F7D7C
:104D9000808360E08EE00E942A0D60E082E00E9445
:104DA0002A0D8CE99FE190930B0180930A01809179
:104DB0006900836080936900E89A6FE771E08EE88C
:104DC00093E00E94DA336CE871E08AE793E00E9496
:104DD000DA3369E971E08EEA93E00E94DA331093E6
:104DE000ED028CED95E00E94B11E60E07DEA88EF57
:104DF0009FEF0E94632264E670E080E090E00E94F2
:104E0000800D60E476E080E090E00E94632264E63A
:104E100070E080E090E00E94800D1093ED0288EC3D
:104E200090E00E94B11E60E47BEB8FEF9FEF0E9449
:104E3000632264E670E080E090E00E94800D60E410
:104E400071E080E090E00E94632264E670E080E020
:104E500090E00E94800D1093ED028EEE92E00E9491
:104E6000B11E67EA76EE8FEF9FEF0E94B32264E6F1
:104E700070E080E090E00E94800D64E671E080E0E8
:104E800090E00E94B32264E670E080E090E00E942F
:104E9000800D1093ED0284E690E00E94B11E6EE05A
:104EA00079EF8FEF9FEF0E94B32264E670E080E01D
:104EB00090E00E94800D80E991E00E94B11E6CE9B3
:104EC00073E180E090E00E9463226BEC7FEF8FEF54
:104ED0009FEF0E94B3226FE771E08EE893E00E949B
:104EE000DA3363EA71E08AE793E00E94DA3369E932
:104EF00071E08EEA93E00E94DA330E94B01D68EE02
:104F000073E080E090E00E94800D8091EF028111BB
:104F100005C180919506882321F080E996E00E94E2
:104F2000D0141092710610926F0610926C061092B7
:104F30006B0686E080936A060E94B20D8B0161E0E9
:104F400080916A060E942A0D61E080916A060E94A3
:104F5000FC0CFFB6F8948091EE02811127C0EAEEB6
:104F6000F6E18491EEEFF6E19491E82FF0E0EE0F98
:104F7000FF1FE453F94EA591B491EC91E92321F47C
:104F800061E08AE00E94FC0C61E08AE00E942A0D48
:104F90008CB580618CBD8CB580648CBD61E08DE08A
:104FA0000E942A0D61E08BE00E942A0D8091EE02A2
:104FB0008F5F8093EE02FFBE82E5809364061092BD
:104FC000650680916406909165060E94F50DAAE041
:104FD000FA2E8FEF0E94D00DFA94F110FACF86E6E8
:104FE00096E00E94F80D20E030E0A90160E086E63E
:104FF00096E00E940E0EF82E8093700681E0F8165F
:1050000099F00E94B20D601B710B613D774058F31F
:1050100081E080936B0686E696E00E94C50D8EEADD
:1050200091E00E943F20FFCF2AEA31E040E050E0CB
:1050300068E086E696E00E940E0E82FF2AC0F0929B
:10504000710680917106C12CD12CE12CE0E4FE2E7A
:10505000823019F0C12CD12C760120E030E0A9017A
:1050600067E386E696E00E940E0EA701960169E2CC
:1050700086E696E00E940E0E809370068823D1F09B
:105080000E94B20D601B710B613D774030F388E0E8
:10509000C0CFF4E0FF2E0E94D70D80937006FA94E3
:1050A000F110F9CF8A3A11F082E0B3CF82E0809319
:1050B0007106C7CF809171068230D1F420E030E0D4
:1050C000A9016AE386E696E00E940E0E882311F09D
:1050D00086E09FCF0E94D70D807C803C19F483E04E
:1050E000809371060E94D70D0E94D70D0E94D70DA4
:1050F00086E696E00E94C50D80E5809364061092D6
:10510000650681E00E94FC0F882309F484C080E9D1
:1051100096E00E94B312882309F481CF81E0809346
:10512000EF021C821B8200E411E01A8309831E82B5
:10513000CE0101960E94B312BE016F5F7F4FCE0178
:10514000CB960E947C1619A218A21F8F0E8F1BA24D
:1051500021968FAD2197811165C06C961FAE1EAE52
:105160006C9788EE93E0A0E0B0E0A0968CAF9DAF86
:10517000AEAFBFAFA09788E591E06A969FAF8EAFC4
:105180006A97E3961FAE1EAEE397A5961FAEA5974E
:105190006C968EAD9FAD6C979093F6068093F50656
:1051A000A0968CAD9DADAEADBFADA0978093F70638
:1051B0009093F806A093F906B093FA06A4968CADE6
:1051C0009DADAEADBFADA4978093FB069093FC065A
:1051D000A093FD06B093FE06A8E5B0E0AC0FBD1F9E
:1051E0001C96EFEFF6E08D91819387E0EC30F807A5
:1051F000D1F7E396EEADFFADE397F0930D07E093A3
:105200000C07309719F0858181112EC082ED91E055
:105210000E943F20FFCF80E00E94FC0F882309F40A
:10522000FECE75CF4AEC51E0BE01655C7F4FCE01EA
:105230004E960E948121882309F48FCFCE01CB9610
:105240000E94D014BE01625E7F4FCE0101960E9483
:105250007C164AEC51E0BE016F5F7F4FCE01885A49
:105260009F4F0E94F92394CF6FE771E08EE893E09F
:105270000E94DA3361EF71E08AE793E00E94DA334B
:1052800069E971E08EEA93E00E94DA330E94B01D72
:105290006EE8262E63E0362E02E212E07AE7A72EB1
:1052A00073E0B72E50E0852E50E0952E83EF96E008
:1052B0000E94D416892B29F580910C0790910D0737
:1052C000009761F00E94D01480910C0790910D0717
:1052D0000E947E3210920D0710920C0768EF71E069
:1052E0008EEA93E00E94DA330E94B01D61E085E00F
:1052F0000E94FC0CFFCF6AE070E080E090E00E942A
:10530000800DE6E1F7E18491E2E0F7E1F490EEEE62
:10531000F6E1E490EE2079F381110E94D30CEE2D9A
:10532000F0E0EE0FFF1FEA52F94EA591B4918C9177
:10533000F82209F36AE070E080E090E00E94800DBE
:1053400064E771E0CE0101960E94BE230E945118CD
:1053500097FD0FC08A30910561F08E8F1F8E41E05E
:1053600050E0BE01625E7F4FCE0101960E94452350
:10537000EDCF8091ED069091EE0669817A810097DC
:1053800009F47BC06115710509F475C04091EF0601
:105390005091F0062D813E814217530708F46BC0EF
:1053A0000E94DA338D819E819093F2068093F106FC
:1053B0001E821D82CE0101960E9418236DEE76E0BA
:1053C000CE014E960E94842341E050E067E072E0F7
:1053D000CE014E960E944523811104C0CE014E9607
:1053E0000E940623BE01625E7F4FCE0101960E949D
:1053F0008423ED80FE80E114F10471F0F1E0EF1AF6
:10540000F10869817A81A70186EF92E00E94E13379
:10541000F701EA50FD4F10821092F50267E072E04A
:1054200086EF92E00E94672C9093A3038093A203DF
:10543000E091F502AE2FB0E0AA0FBB1FAE55BC4FF6
:105440008D919C91892B81F1FF24F394FE0EF092B3
:10545000F50285E08F1540F167E072E090E080E0B2
:105460000E94672CEF2DF0E0EE0FFF1FEE55FC4F72
:1054700091838083DDCF0E947E3289819A819093CF
:10548000EE068093ED068B819C819093F0068093CD
:10549000EF068D819E819093F2068093F1061A8229
:1054A00019821C821B8284CFCE0101960E94182390
:1054B000CE014E960E9418236091A2037091A3031F
:1054C000CE0101960E94BE2364E072E0CE014E96AA
:1054D0000E94BE23BE016F5F7F4FCE014E960E9499
:1054E00071230E946C21CE014E960E941823CE019A
:1054F00001960E9418236091A4037091A503CE0128
:1055000001960E94BE2369E072E0CE014E960E9491
:10551000BE23BE016F5F7F4FCE014E960E94712366
:105520000E946C21CE014E960E941823CE01019656
:105530000E9418236091A6037091A703CE010196E3
:105540000E94BE236EE072E0CE014E960E94BE2302
:10555000BE016F5F7F4FCE014E960E9471230E9465
:105560006C21CE014E960E941823CE0101960E9416
:1055700018236091A8037091A903CE0101960E949F
:10558000BE2363E172E0CE014E960E94BE23BE01AF
:105590006F5F7F4FCE014E960E9471230E946C2157
:1055A000CE014E960E941823CE0101960E94182328
:1055B0006091AA037091AB03CE0101960E94BE23B5
:1055C00068E172E0CE014E960E94BE23BE016F5F7D
:1055D0007F4FCE014E960E9471230E946C21CE0116
:1055E0004E960E941823CE0101960E9418236091C6
:1055F000AC037091AD03CE0101960E94BE236DE114
:1056000072E0CE014E960E94BE23BE016F5F7F4FB7
:10561000CE014E960E9471230E946C21CE014E96BF
:105620000E941823CE0101960E9418238091A303A3
:105630008F938091A2038F933F922F920E94F03319
:105640008091AD038F938091AC038F938091AB03D6
:105650008F938091AA038F931F930F93BF92AF9262
:105660000E94F03365E771E08EEA93E00E94DA333E
:105670000E94B01D8091A6039091A7030E94632C05
:1056800020E030E040EF51E40E947C2F6B017C0170
:105690008091A4039091A5030E94632C20E030E048
:1056A00040EF51E40E947C2F2B013C01AC019B0197
:1056B000C701B6010E94FC2F20E030E044E353E430
:1056C0000E946A2E2BED3FE049E450E40E945B30DB
:1056D00060937603709377038093780390937903B4
:1056E00088E292E00E943F206091760370917703F8
:1056F000809178039091790342E00E94902082E7A4
:1057000091E00E943F20A3019201C301B2010E94D7
:105710006A2E2B013C01A7019601C701B6010E9428
:105720006A2E9B01AC01C301B2010E947D2F0E9431
:105730003D3160937203709373038093740390936D
:10574000750381E492E00E943F20609172037091A2
:105750007303809174039091750342E00E9490203E
:1057600082E791E00E943F202091760330917703F9
:10577000409178035091790360910E0170910F016F
:1057800080911001909111010E947C2F29E33EE845
:1057900043EE5DE30E946A2E20E030E040E253E4F5
:1057A0000E946A2E6B017C010FB6F894DEBF0FBE1B
:1057B000CDBF20E030E0A9010E942A3120E030E096
:1057C00040E05FE387FD71C0C701B6010E947D2FF5
:1057D0000E94CD300E940B2E0E94CD300E94B32239
:1057E00020916E0330916F034091700350917103CB
:1057F00060917203709173038091740390917503AB
:105800000E947C2F20E030E040E253E40E946A2EA8
:105810006B017C0120E030E0A9010E942A3120E0E8
:1058200030E040E05FE387FD45C0C701B6010E945C
:105830007D2F0E94CD300E940B2E0E94CD300E9401
:1058400063228091760390917703A0917803B091C1
:10585000790380930E0190930F01A0931001B093F0
:1058600011018091720390917303A0917403B09120
:10587000750380936E0390936F03A0937003B093AE
:1058800071036BE472E08EEA93E00E94DA330E94C7
:10589000B01D8114910409F409CD0E94300C8823B5
:1058A00009F400CD0E940000FDCCC701B6010E94A2
:1058B0007C2F8ECFC701B6010E947C2FBACF8DEE10
:1058C00096E00C941823662777270C94932C4EE0CF
:1058D00057E00E946C2C0895FA01A191B0810097C5
:1058E00019F41097E1F0CD01DC01CD010D900020FD
:1058F00011F4C00113C0FB012191222319F02015DE
:10590000D9F7F3CFFB012191201519F41E921196BE
:1059100006C02223C1F70D900020A1F7D001FA01A3
:10592000A193B0830895B0E0A0E0E9E9FCE20C9413
:105930003C2F5C017B016115710519F0DB018D9332
:105940009C9385010F5F1F4FF501D0818D2F90E053
:105950000E94E32D6C01892BB9F5DD32B9F50F5F9B
:105960001F4FD5011196DC91C1E05801F1E0AF1A4B
:10597000B10843E050E06EE970E0C5010E94EC2DF3
:10598000892B69F5680182E0C80ED11C45E050E022
:1059900069E970E0C6010E94EC2D892B21F46801B1
:1059A00097E0C90ED11CE114F10419F0D701CD9292
:1059B000DC9260E070E080E89FEFC111FFC060E022
:1059C00070E080E89FE7FAC05801BBCFDB3229F4D2
:1059D00085010E5F1F4FF501D181C0E0C6CF43E0C6
:1059E00050E066E970E0C5010E94EC2D892BE9F0DA
:1059F000F80110E000E020E030E0A9015F01B0ED27
:105A00008B2E8D0E89E08815C8F19C2E689491F834
:105A10008C2F8870C2FF16C0811102C00F5F1F4F0C
:105A20003196D501DC91C92DE9CFE114F10429F0BB
:105A30000E5F1F4FF7011183008360E070E080EC80
:105A40009FE7BCC0882311F001501109A5E0B0E028
:105A50000E942B2F9B01AC01220F331F441F551FA7
:105A6000280D311D411D511D283999E93907490774
:105A700099E15907A8F2C6609C2ED2CFAEEF8A12E8
:105A800006C0C3FD3CC09C2E689493F8C9CFDF7D4F
:105A9000D534A9F580818D3239F4C061DF011296C9
:105AA000818162E070E006C0DF018B32C1F31196A4
:105AB00061E070E080535D01A61AB70A8A30F8F4FD
:105AC000E0E8CE16ECE0DE065CF4B601660F771F68
:105AD000660F771FC60ED71ECC0CDD1CC80ED11C5E
